:100000000C9462000C948A000C948A000C948A0070
:100010000C948A000C948A000C948A000C948A0038
:100020000C948A000C948A000C948A000C948A0028
:100030000C948A000C948A000C948A000C948A0018
:100040000C9431030C948A000C948A000C948A005E
:100050000C948A000C948A000C948A000C948A00F8
:100060000C948A000C948A000000000024002700F1
:100070002A0000000000250028002B0000000000DE
:1000800023002600290004040404040404040202DA
:100090000202020203030303030301020408102007
:1000A0004080010204081020010204081020000012
:1000B0000008000201000003040700000000000027
:1000C00000004D0411241FBECFEFD8E0DEBFCDBF2E
:1000D00011E0A0E0B1E0EAE2F9E002C005900D9283
:1000E000AA32B107D9F721E0AAE2B1E001C01D921E
:1000F000A135B207E1F710E0C2E6D0E004C02197D5
:10010000FE010E948D04C136D107C9F70E947B030E
:100110000C9493040C940000833081F028F4813017
:1001200099F08230A9F008958730A9F08830C9F09D
:100130008430B1F4809180008F7D03C08091800075
:100140008F7780938000089584B58F7784BD08955C
:1001500084B58F7DFBCF8091B0008F778093B00006
:1001600008958091B0008F7DF9CFCF93DF93E0EBBE
:10017000F0E08491ECE9F0E0D491E8E8F0E0C4919B
:10018000CC23A1F081110E948C00EC2FF0E0EE0F47
:10019000FF1FE458FF4FA591B491EC91ED2381E04E
:1001A00090E009F480E0DF91CF91089580E090E045
:1001B000FACF1F93CF93DF93282F30E0F901E25558
:1001C000FF4F8491F901E656FF4FD491F901EA57A8
:1001D000FF4FC491CC23A9F0162F81110E948C00EF
:1001E000EC2FF0E0EE0FFF1FEE58FF4FA591B491FA
:1001F0008FB7F894EC91111108C0D095DE23DC93F1
:100200008FBFDF91CF911F910895DE2BF8CFCF9351
:10021000DF9390E0FC01E656FF4F24918A579F4FF1
:10022000FC0184918823D1F090E0880F991FFC0194
:10023000E859FF4FA591B491FC01EE58FF4FC591CD
:10024000D49161110EC09FB7F8948C91E22FE09584
:100250008E238C932881E223E8839FBFDF91CF9187
:1002600008958FB7F894EC91E22BEC938FBFF6CF03
:100270003FB7F8948091350190913601A0913701F4
:10028000B091380126B5A89B05C02F3F19F0019603
:10029000A11DB11D3FBFBA2FA92F982F8827BC01E0
:1002A000CD01620F711D811D911D42E0660F771F08
:1002B000881F991F4A95D1F70895AF92BF92CF92A8
:1002C000DF92EF92FF920F931F93CF93DF936C0116
:1002D0007B018B01040F151FEB015E01AE18BF08F7
:1002E000C017D10759F06991D601ED91FC910190A9
:1002F000F081E02DC6010995892B79F7C501DF91C1
:10030000CF911F910F91FF90EF90DF90CF90BF9012
:10031000AF900895089590E080E008958F929F92A5
:10032000AF92BF920F931F93CF93DF93CDB7DEB7FA
:10033000A1970FB6F894DEBF0FBECDBF19A2423011
:1003400008F44AE08E010F5D1F4F842E912CB12CD2
:10035000A12CA50194010E946B04E62FB901CA01EA
:10036000EA3044F5E05DD801EE938D01232B242B78
:10037000252B79F790E080E0109769F0FD0101905E
:100380000020E9F73197AF014A1B5B0BBD0189E300
:1003900091E00E945D01A1960FB6F894DEBF0FBEFA
:1003A000CDBFDF91CF911F910F91BF90AF909F90E4
:1003B0008F900895E95CD7CFFC0101900020E9F708
:1003C0003197AF01481B590BBC0189E391E00C94B4
:1003D0005D01CF93DF93EC0160E08E810E94D90034
:1003E00061E08E810E94D90060E08E810E94D90078
:1003F0008BE891E00197F1F7DF91CF910895CF92CB
:10040000DF92EF92FF920F931F93CF93DF936C01D4
:100410007C0187E0E80EF11CD0E0C0E0062F10E080
:10042000B8010C2E02C0759567950A94E2F76170C9
:10043000F70181917F010E94D9002196C430D10536
:1004400079F7C601DF91CF911F910F91FF90EF9047
:10045000DF90CF900C94E901CF92DF92EF92FF9260
:100460000F931F93CF93DF93EC01F62E642F8C81B3
:100470000E94D9008D818F3F19F060E00E94D90061
:100480000F2D10E08F8584FF25C06E0187E0C80E18
:10049000D11CF12CE12CB8010E2C02C0759567958A
:1004A0000A94E2F76170F60181916F010E94D90010
:1004B000FFEFEF1AFF0A88E0E816F10461F7CE01BA
:1004C000DF91CF911F910F91FF90EF90DF90CF9030
:1004D0000C94E901B80184E0759567958A95E1F778
:1004E000CE010E94FF016F2DCE01DF91CF911F91B0
:1004F0000F91FF90EF90DF90CF900C94FF0140E0C0
:10050000682F89E391E00C942C02CF93DF93823023
:1005100029F49091480198609093480180934C0190
:1005200010924D0180E480934E0180E180934F0151
:1005300080E58093500161E080913D010E940701B8
:1005400080913E018F3F19F061E00E94070161E058
:1005500080913F010E940701C9E3D1E09E01295328
:1005600031408091480184FD0BC084E090E02196E9
:100570002817390744F461E08E810E940701EECF0D
:1005800088E090E0F4CF8BE39DE00197F1F760E025
:1005900080913D010E94D90060E080913F010E945E
:1005A000D90080913E018F3F19F060E00E94D90090
:1005B0008091480184FD39C063E089E391E00E94A5
:1005C000FF01CBE4D6E4CE010197F1F763E089E3C4
:1005D00091E00E94FF012197F1F763E089E391E048
:1005E0000E94FF0183E592E00197F1F762E089E361
:1005F00091E00E94FF018091480180620E947F0289
:1006000084E0809349018CE00E947F0281E00E9497
:100610007F028BE39FE10197F1F782E080934A012B
:1006200086E0DF91CF910C947F0280620E947F026E
:100630008BE496E40197F1F78091480180620E9473
:100640007F0283E592E00197F1F780914801806293
:100650000E947F02D0CF41E00E942C0281E090E016
:1006600008951F920F920FB60F9211242F933F936C
:100670008F939F93AF93BF938091310190913201FB
:10068000A0913301B09134013091300123E0230F68
:100690002D3758F50196A11DB11D2093300180938F
:1006A000310190933201A0933301B09334018091D2
:1006B000350190913601A0913701B0913801019632
:1006C000A11DB11D8093350190933601A093370190
:1006D000B0933801BF91AF919F918F913F912F912E
:1006E0000F900FBE0F901F90189526E8230F0296CB
:1006F000A11DB11DD2CF789484B5826084BD84B52C
:10070000816084BD85B5826085BD85B5816085BD0C
:1007100080916E00816080936E00109281008091C4
:10072000810082608093810080918100816080934C
:100730008100809180008160809380008091B10071
:1007400084608093B1008091B00081608093B0009C
:1007500080917A00846080937A0080917A00826030
:1007600080937A0080917A00816080937A008091F2
:100770007A00806880937A001092C10082E00E9423
:1007800085028CE091E00E94DC0160E082E00E9442
:100790000701C0E0D0E00E94B50090932F01809344
:1007A0002E01019709F069C080912C0190912D01D3
:1007B000892B09F062C00E9438014B015C0184E181
:1007C000C82ED12CE12CF12C0E943801681979092E
:1007D0008A099B09683E734081059105A8F321E0D1
:1007E000C21AD108E108F10888EE880E83E0981E4D
:1007F000A11CB11CC114D104E104F10429F70E9429
:10080000B5000197D1F580912A0190912B010196B5
:1008100090932B0180932A01E0914C01E230D8F5AE
:10082000E150F0E0E75CFE4F848980680E947F021F
:100830008AE191E00E94DC01C0902A01D0902B0156
:100840000D2C000CEE08FF084AE0C701B601F7FEC8
:100850000EC041E06DE289E391E00E942C02662720
:100860007727CB016C197D098E099F094AE00E9408
:100870008E0184E291E00E94DC0180912E01909132
:100880002F0190932D0180932C01209709F483CFA1
:100890000E94000080CFE1E0C4CFE9E3F1E01382E1
:1008A000128284E091E09183808387E084838FEFDC
:1008B000858388E0868389E087838AE080878BE070
:1008C00081878CE0828713861486158616861786A4
:1008D00081E00C948502A1E21A2EAA1BBB1BFD012C
:1008E0000DC0AA1FBB1FEE1FFF1FA217B307E4070F
:1008F000F50720F0A21BB30BE40BF50B661F771F67
:10090000881F991F1A9469F7609570958095909546
:100910009B01AC01BD01CF010895EE0FFF1F0590B3
:0A092000F491E02D0994F894FFCF44
:10092A00000000002B035D018B018A01427574747B
:10093A006F6E20436F756E743A00507265737365FB
:0A094A00733A200020202020000056
:00000001FF
